{
  "contractName": "instagram",
  "abi": [
    {
      "anonymous": false,
      "inputs": [
        {
          "indexed": false,
          "internalType": "uint256",
          "name": "id",
          "type": "uint256"
        },
        {
          "indexed": false,
          "internalType": "string",
          "name": "url",
          "type": "string"
        },
        {
          "indexed": false,
          "internalType": "string",
          "name": "caption",
          "type": "string"
        },
        {
          "indexed": false,
          "internalType": "address payable",
          "name": "author",
          "type": "address"
        }
      ],
      "name": "ImageCreated",
      "type": "event"
    },
    {
      "anonymous": false,
      "inputs": [
        {
          "indexed": false,
          "internalType": "uint256",
          "name": "id",
          "type": "uint256"
        },
        {
          "indexed": false,
          "internalType": "string",
          "name": "url",
          "type": "string"
        },
        {
          "indexed": false,
          "internalType": "string",
          "name": "caption",
          "type": "string"
        },
        {
          "indexed": false,
          "internalType": "uint256",
          "name": "currentTip",
          "type": "uint256"
        },
        {
          "indexed": false,
          "internalType": "uint256",
          "name": "totalTipped",
          "type": "uint256"
        },
        {
          "indexed": false,
          "internalType": "address payable",
          "name": "author",
          "type": "address"
        }
      ],
      "name": "ImageTipped",
      "type": "event"
    },
    {
      "inputs": [],
      "name": "imageCount",
      "outputs": [
        {
          "internalType": "uint256",
          "name": "",
          "type": "uint256"
        }
      ],
      "stateMutability": "view",
      "type": "function"
    },
    {
      "inputs": [
        {
          "internalType": "uint256",
          "name": "",
          "type": "uint256"
        }
      ],
      "name": "images",
      "outputs": [
        {
          "internalType": "uint256",
          "name": "id",
          "type": "uint256"
        },
        {
          "internalType": "string",
          "name": "url",
          "type": "string"
        },
        {
          "internalType": "string",
          "name": "caption",
          "type": "string"
        },
        {
          "internalType": "uint256",
          "name": "totalTipped",
          "type": "uint256"
        },
        {
          "internalType": "address payable",
          "name": "author",
          "type": "address"
        }
      ],
      "stateMutability": "view",
      "type": "function"
    },
    {
      "inputs": [
        {
          "internalType": "string",
          "name": "_imgUrl",
          "type": "string"
        },
        {
          "internalType": "string",
          "name": "_caption",
          "type": "string"
        }
      ],
      "name": "uploadImage",
      "outputs": [],
      "stateMutability": "nonpayable",
      "type": "function"
    },
    {
      "inputs": [
        {
          "internalType": "uint256",
          "name": "_id",
          "type": "uint256"
        }
      ],
      "name": "tipImageOwner",
      "outputs": [],
      "stateMutability": "payable",
      "type": "function"
    }
  ],
  "bytecode": "0x608060405234801561001057600080fd5b50611384806100206000396000f3fe60806040526004361061003f5760003560e01c806384856482146100445780638567ade81461008557806392053b63146100a1578063a91b8314146100cc575b600080fd5b34801561005057600080fd5b5061006b60048036038101906100669190610a1d565b6100f5565b60405161007c959493929190610b2a565b60405180910390f35b61009f600480360381019061009a9190610a1d565b61025b565b005b3480156100ad57600080fd5b506100b6610713565b6040516100c39190610b8b565b60405180910390f35b3480156100d857600080fd5b506100f360048036038101906100ee9190610cdb565b610719565b005b600160205280600052604060002060009150905080600001549080600101805461011e90610d82565b80601f016020809104026020016040519081016040528092919081815260200182805461014a90610d82565b80156101975780601f1061016c57610100808354040283529160200191610197565b820191906000526020600020905b81548152906001019060200180831161017a57829003601f168201915b5050505050908060020180546101ac90610d82565b80601f01602080910402602001604051908101604052809291908181526020018280546101d890610d82565b80156102255780601f106101fa57610100808354040283529160200191610225565b820191906000526020600020905b81548152906001019060200180831161020857829003601f168201915b5050505050908060030154908060040160009054906101000a900473ffffffffffffffffffffffffffffffffffffffff16905085565b6000600160008381526020019081526020016000206040518060c00160405290816000820154815260200160018201805461029590610d82565b80601f01602080910402602001604051908101604052809291908181526020018280546102c190610d82565b801561030e5780601f106102e35761010080835404028352916020019161030e565b820191906000526020600020905b8154815290600101906020018083116102f157829003601f168201915b5050505050815260200160028201805461032790610d82565b80601f016020809104026020016040519081016040528092919081815260200182805461035390610d82565b80156103a05780601f10610375576101008083540402835291602001916103a0565b820191906000526020600020905b81548152906001019060200180831161038357829003601f168201915b50505050508152602001600382015481526020016004820160009054906101000a900473ffffffffffffffffffffffffffffffffffffffff1673ffffffffffffffffffffffffffffffffffffffff1673ffffffffffffffffffffffffffffffffffffffff1681526020016005820180548060200260200160405190810160405280929190818152602001828054801561048e57602002820191906000526020600020905b8160009054906101000a900473ffffffffffffffffffffffffffffffffffffffff1673ffffffffffffffffffffffffffffffffffffffff1681526020019060010190808311610444575b50505050508152505090508160001080156104ab57506000548211155b6104ea576040517f08c379a00000000000000000000000000000000000000000000000000000000081526004016104e190610dff565b60405180910390fd5b3460001061052d576040517f08c379a000000000000000000000000000000000000000000000000000000000815260040161052490610e6b565b60405180910390fd5b806080015173ffffffffffffffffffffffffffffffffffffffff163373ffffffffffffffffffffffffffffffffffffffff160361059f576040517f08c379a000000000000000000000000000000000000000000000000000000000815260040161059690610ed7565b60405180910390fd5b806080015173ffffffffffffffffffffffffffffffffffffffff166108fc349081150290604051600060405180830381858888f193505050501580156105e9573d6000803e3d6000fd5b5034816060018181516105fc9190610f26565b9150818152505080600160008481526020019081526020016000206000820151816000015560208201518160010190816106369190611106565b50604082015181600201908161064c9190611106565b506060820151816003015560808201518160040160006101000a81548173ffffffffffffffffffffffffffffffffffffffff021916908373ffffffffffffffffffffffffffffffffffffffff16021790555060a08201518160050190805190602001906106ba92919061092c565b509050507f85b44d33c319c93f98e6f749d3ffaa478d65e487e30724c57d4458b31de6146c82826020015183604001513485606001518660800151604051610707969594939291906111d8565b60405180910390a15050565b60005481565b600073ffffffffffffffffffffffffffffffffffffffff163373ffffffffffffffffffffffffffffffffffffffff1603610788576040517f08c379a000000000000000000000000000000000000000000000000000000000815260040161077f90611293565b60405180910390fd5b60008081548092919061079a906112b3565b91905055506040518060c001604052806000548152602001838152602001828152602001600081526020013373ffffffffffffffffffffffffffffffffffffffff168152602001600067ffffffffffffffff8111156107fc576107fb610bb0565b5b60405190808252806020026020018201604052801561082a5781602001602082028036833780820191505090505b5081525060016000805481526020019081526020016000206000820151816000015560208201518160010190816108619190611106565b5060408201518160020190816108779190611106565b506060820151816003015560808201518160040160006101000a81548173ffffffffffffffffffffffffffffffffffffffff021916908373ffffffffffffffffffffffffffffffffffffffff16021790555060a08201518160050190805190602001906108e592919061092c565b509050507fb82a9f3a70bc97d2ca962d6c417b770c2158b2014d3f028d4de74b315692d4c760005483833360405161092094939291906112fb565b60405180910390a15050565b8280548282559060005260206000209081019282156109a5579160200282015b828111156109a45782518260006101000a81548173ffffffffffffffffffffffffffffffffffffffff021916908373ffffffffffffffffffffffffffffffffffffffff1602179055509160200191906001019061094c565b5b5090506109b291906109b6565b5090565b5b808211156109cf5760008160009055506001016109b7565b5090565b6000604051905090565b600080fd5b600080fd5b6000819050919050565b6109fa816109e7565b8114610a0557600080fd5b50565b600081359050610a17816109f1565b92915050565b600060208284031215610a3357610a326109dd565b5b6000610a4184828501610a08565b91505092915050565b610a53816109e7565b82525050565b600081519050919050565b600082825260208201905092915050565b60005b83811015610a93578082015181840152602081019050610a78565b60008484015250505050565b6000601f19601f8301169050919050565b6000610abb82610a59565b610ac58185610a64565b9350610ad5818560208601610a75565b610ade81610a9f565b840191505092915050565b600073ffffffffffffffffffffffffffffffffffffffff82169050919050565b6000610b1482610ae9565b9050919050565b610b2481610b09565b82525050565b600060a082019050610b3f6000830188610a4a565b8181036020830152610b518187610ab0565b90508181036040830152610b658186610ab0565b9050610b746060830185610a4a565b610b816080830184610b1b565b9695505050505050565b6000602082019050610ba06000830184610a4a565b92915050565b600080fd5b600080fd5b7f4e487b7100000000000000000000000000000000000000000000000000000000600052604160045260246000fd5b610be882610a9f565b810181811067ffffffffffffffff82111715610c0757610c06610bb0565b5b80604052505050565b6000610c1a6109d3565b9050610c268282610bdf565b919050565b600067ffffffffffffffff821115610c4657610c45610bb0565b5b610c4f82610a9f565b9050602081019050919050565b82818337600083830152505050565b6000610c7e610c7984610c2b565b610c10565b905082815260208101848484011115610c9a57610c99610bab565b5b610ca5848285610c5c565b509392505050565b600082601f830112610cc257610cc1610ba6565b5b8135610cd2848260208601610c6b565b91505092915050565b60008060408385031215610cf257610cf16109dd565b5b600083013567ffffffffffffffff811115610d1057610d0f6109e2565b5b610d1c85828601610cad565b925050602083013567ffffffffffffffff811115610d3d57610d3c6109e2565b5b610d4985828601610cad565b9150509250929050565b7f4e487b7100000000000000000000000000000000000000000000000000000000600052602260045260246000fd5b60006002820490506001821680610d9a57607f821691505b602082108103610dad57610dac610d53565b5b50919050565b7f496e76616c696420696d61676520494400000000000000000000000000000000600082015250565b6000610de9601083610a64565b9150610df482610db3565b602082019050919050565b60006020820190508181036000830152610e1881610ddc565b9050919050565b7f4120746970206d7573742062652067726561746572207468616e203000000000600082015250565b6000610e55601c83610a64565b9150610e6082610e1f565b602082019050919050565b60006020820190508181036000830152610e8481610e48565b9050919050565b7f4f776e65722063616e6e6f7420746970207468656972206f776e20696d616765600082015250565b6000610ec1602083610a64565b9150610ecc82610e8b565b602082019050919050565b60006020820190508181036000830152610ef081610eb4565b9050919050565b7f4e487b7100000000000000000000000000000000000000000000000000000000600052601160045260246000fd5b6000610f31826109e7565b9150610f3c836109e7565b9250828201905080821115610f5457610f53610ef7565b5b92915050565b60008190508160005260206000209050919050565b60006020601f8301049050919050565b600082821b905092915050565b600060088302610fbc7fffffffffffffffffffffffffffffffffffffffffffffffffffffffffffffffff82610f7f565b610fc68683610f7f565b95508019841693508086168417925050509392505050565b6000819050919050565b6000611003610ffe610ff9846109e7565b610fde565b6109e7565b9050919050565b6000819050919050565b61101d83610fe8565b6110316110298261100a565b848454610f8c565b825550505050565b600090565b611046611039565b611051818484611014565b505050565b5b818110156110755761106a60008261103e565b600181019050611057565b5050565b601f8211156110ba5761108b81610f5a565b61109484610f6f565b810160208510156110a3578190505b6110b76110af85610f6f565b830182611056565b50505b505050565b600082821c905092915050565b60006110dd600019846008026110bf565b1980831691505092915050565b60006110f683836110cc565b9150826002028217905092915050565b61110f82610a59565b67ffffffffffffffff81111561112857611127610bb0565b5b6111328254610d82565b61113d828285611079565b600060209050601f831160018114611170576000841561115e578287015190505b61116885826110ea565b8655506111d0565b601f19841661117e86610f5a565b60005b828110156111a657848901518255600182019150602085019450602081019050611181565b868310156111c357848901516111bf601f8916826110cc565b8355505b6001600288020188555050505b505050505050565b600060c0820190506111ed6000830189610a4a565b81810360208301526111ff8188610ab0565b905081810360408301526112138187610ab0565b90506112226060830186610a4a565b61122f6080830185610a4a565b61123c60a0830184610b1b565b979650505050505050565b7f496e7661696c642077616c6c6574206164647265737300000000000000000000600082015250565b600061127d601683610a64565b915061128882611247565b602082019050919050565b600060208201905081810360008301526112ac81611270565b9050919050565b60006112be826109e7565b91507fffffffffffffffffffffffffffffffffffffffffffffffffffffffffffffffff82036112f0576112ef610ef7565b5b600182019050919050565b60006080820190506113106000830187610a4a565b81810360208301526113228186610ab0565b905081810360408301526113368185610ab0565b90506113456060830184610b1b565b9594505050505056fea2646970667358221220e19e8c4ee84826262d77d77910a8079659436247afaa2452b715239872154cc764736f6c63430008110033",
  "immutableReferences": {},
  "source": "// SPDX-License-Identifier: MIT\npragma solidity ^0.8.17;\n\ncontract instagram {\n    struct Image {\n        uint id;\n        string url;\n        string caption;\n        uint totalTipped;\n        address payable author;\n        address[] tripperAddresses;\n    }\n\n    uint256 public imageCount;\n\n    mapping(uint256 => Image) public images;\n\n    event ImageCreated(\n        uint id,\n        string url,\n        string caption,\n        address payable author\n    );\n\n    event ImageTipped(\n        uint id,\n        string url,\n        string caption,\n        uint currentTip,\n        uint totalTipped,\n        address payable author\n    );\n\n    function uploadImage(string memory _imgUrl, string memory _caption) public {\n        require(msg.sender != address(0), \"Invaild wallet address\");\n\n        imageCount++;\n\n        images[imageCount] = Image(\n            imageCount,\n            _imgUrl,\n            _caption,\n            0,\n            payable(msg.sender),\n            new address[](0)\n        );\n\n        emit ImageCreated(imageCount, _imgUrl, _caption, payable(msg.sender));\n    }\n\n    function tipImageOwner(uint256 _id) public payable {\n        Image memory _image = images[_id];\n\n        require(0 < _id && _id <= imageCount, \"Invalid image ID\");\n        require(0 < msg.value, \"A tip must be greater than 0\");\n        require(\n            msg.sender != _image.author,\n            \"Owner cannot tip their own image\"\n        );\n\n        payable(address(_image.author)).transfer(msg.value);\n\n        _image.totalTipped += msg.value;\n        images[_id] = _image;\n\n        emit ImageTipped(\n            _id,\n            _image.url,\n            _image.caption,\n            msg.value,\n            _image.totalTipped,\n            _image.author\n        );\n    }\n}\n",
  "sourcePath": "/Users/keatonkrieger/Documents/Dev/youtube/instagram-infura-youtube/truffle-app/contracts/instagram.sol",
  "compiler": {
    "name": "solc",
    "version": "0.8.17+commit.8df45f5f.Emscripten.clang"
  },
  "schemaVersion": "3.4.6",
  "updatedAt": "2023-03-15T01:41:56.870Z",
  "devdoc": {
    "kind": "dev",
    "methods": {},
    "version": 1
  },
  "userdoc": {
    "kind": "user",
    "methods": {},
    "version": 1
  }
}